:100000000C9418040C9449040C9449040C9449046D
:100010000C9449040C9449040C9449040C9449042C
:100020000C9449040C9449040C9449040C9449041C
:100030000C9449040C9449040C9449040C9449040C
:100040000C9449040C9449040C9449040C944904FC
:100050000C9449040C9449040C9449040C94010F29
:100060000C9449040C94A7130C9473140C94490435
:100070000C9449040C9449040C9449040C944904CC
:100080000C9449040C9449040C9449040C944904BC
:100090000C94DA130C94B2140C9449040C94490493
:1000A0000C9449040C9449040C9449040C9449049C
:1000B0000C9449040C9449040C9449040C9449048C
:1000C0000C9449040C9449040C9449040C940D14A8
:1000D0000C94F1140C9449040C9440140C943015B5
:1000E0000C9449044010431036103A107A1047100F
:1000F0004B105110551059105F10631067107A1093
:100100006D10711075100C94E0300C9459100C9413
:10011000D12F0C94B7190C9447100C944B130C94DA
:10012000DE2E0C94F82F0C94772B0C94B0330C9497
:10013000E52F0C94FC330C9436100C94EE290C949F
:1001400004130C9467100C945F100C9480290C9489
:10015000B0070C944B100C9471100C9443100C9439
:1001600075100C9407190C94A8290C942E300C943B
:1001700079290C94CC180C9410110C94322A0C94FC
:10018000C62F0C9411190C94F7150C946D100C9447
:10019000F4120C94A2300C949F180C943A100C9406
:1001A0001D210C947A100C94A12A0C9468300C94A4
:1001B000172B0C9451100C9478290C9440130C9428
:1001C00040100C9455100C9429350C9498290C94DB
:1001D000B6180C94832A0C94E8180C94CF280C942D
:1001E000A4350C94F3120C9463100C948C290C9489
:1001F000762B0C9420130C94A9290000090A0208FC
:100200000B0C0D07060304010000000000000000B5
:1002100000000000000000000000000000000000DE
:1002200000000000000011100F000000000000009E
:1002300000000000000000000000000000000000BE
:1002400001021020200808102040102040800201E8
:1002500002010804020101020408102040808040CD
:1002600020100804020180040201804020100804CC
:10027000020108040201010204081020408001026A
:100280000408102040800505050507050808080832
:10029000020202020A0A080804040404010101011E
:1002A0000101010103030303030303030407070719
:1002B0000C0C0C0C0C0C0C0C0202020206060606BE
:1002C000060606060B0B0B0B0B0B0B0B000020009E
:1002D0002300260029002C002F003200000100001E
:1002E00003010601090100002200250028002B005F
:1002F0002E003100340002010000050108010B014D
:1003000000002100240027002A002D0030003300C7
:1003100001010000040107010A017C3C3E5E2B3D07
:100320003F2F5B5D3B2C2A225C0000000000003E5A
:100330005B4F5B3E3E6B4F6B3E1C3E7C3E1C183C55
:100340007E3C181C577D571C1C5E7F5E1C00183CB1
:100350001800FFE7C3E7FF0018241800FFE7DBE7FA
:10036000FF30483A060E2629792926407F050507E1
:10037000407F05253F5A3CE73C5A7F3E1C1C08083D
:100380001C1C3E7F14227F22145F5F005F5F060902
:100390007F017F006689956A606060606094A2FF5B
:1003A000A29408047E040810207E201008082A1C4D
:1003B00008081C2A08081E101010100C1E0C1E0C19
:1003C00030383E3830060E3E0E06000000000000B9
:1003D000005F00000007000700147F147F14242A28
:1003E0007F2A1223130864623649562050000807FA
:1003F0000300001C2241000041221C002A1C7F1C1B
:100400002A08083E0808008070300008080808081C
:10041000000060600020100804023E5149453E0083
:10042000427F400072494949462141494D331814E1
:10043000127F1027454545393C4A49493141211130
:1004400009073649494936464949291E0000140022
:100450000000403400000008142241141414141445
:10046000004122140802015909063E415D594E7CA3
:100470001211127C7F494949363E414141227F4158
:1004800041413E7F494949417F090909013E4141B6
:1004900051737F0808087F00417F41002040413FA1
:1004A000017F081422417F404040407F021C027FB0
:1004B0007F0408107F3E4141413E7F090909063E05
:1004C0004151215E7F0919294626494949320301D4
:1004D0007F01033F4040403F1F2040201F3F4038E6
:1004E000403F631408146303047804036159494DC1
:1004F00043007F4141410204081020004141417FF7
:10050000040201020440404040400003070800206C
:10051000545478407F28444438384444442838446C
:1005200044287F385454541800087E090218A4A4A3
:100530009C787F0804047800447D40002040403DC2
:10054000007F1028440000417F40007C047804783C
:100550007C080404783844444438FC1824241818CF
:10056000242418FC7C08040408485454542404042B
:100570003F44243C4040207C1C2040201C3C403018
:10058000403C44281028444C9090907C4464544C47
:1005900044000836410000007700000041360800A2
:1005A00002010204023C2623263C1EA1A161123A4C
:1005B0004040207A38545455592155557941225498
:1005C000547842215554784020545579400C1E529D
:1005D0007212395555555939545454593955545442
:1005E000580000457C410002457D420001457C40A9
:1005F0007D1211127DF0282528F07C5455450020ED
:1006000054547C547C0A097F4932494949323A445E
:1006100044443A324A4848303A4141217A3A4240C9
:100620002078009DA0A07D3D4242423D3D4040409B
:100630003D3C24FF2424487E4943662B2FFC2F2B6E
:10064000FF0929F620C0887E09032054547941000F
:1006500000447D413048484A32384040227A007A8E
:100660000A0A727D0D19317D2629292F282629296C
:10067000292630484D40203808080808080808088E
:10068000382F10C8ACBA2F102834FA00007B0000B5
:1006900008142A142222142A14085500550055AAB9
:1006A00055AA55AAFF55FF55FF000000FF00101086
:1006B00010FF00141414FF001010FF00FF1010F0C2
:1006C00010F0141414FC001414F700FF0000FF00D5
:1006D000FF1414F404FC141417101F10101F101F23
:1006E0001414141F00101010F0000000001F101050
:1006F00010101F10101010F010000000FF1010104C
:10070000101010101010FF10000000FF140000FF68
:1007100000FF00001F10170000FC04F41414171051
:10072000171414F404F40000FF00F7141414141444
:100730001414F700F7141414171410101F101F14BA
:100740001414F4141010F010F000001F101F00001B
:10075000001F14000000FC140000F010F01010FF47
:1007600010FF141414FF141010101F00000000F0EC
:1007700010FFFFFFFFFFF0F0F0F0F0FFFFFF0000C1
:10078000000000FFFF0F0F0F0F0F3844443844FCE8
:100790004A4A4A347E02020606027E027E026355FF
:1007A0004941633844443C04407E201E2006027EBA
:1007B000020299A5E7A5991C2A492A1C4C720172CC
:1007C0004C304A4D4D303048784830BC625A463D36
:1007D0003E494949007E0101017E2A2A2A2A2A44EB
:1007E000445F444440514A444040444A5140000020
:1007F000FF0103E080FF000008086B6B083612362B
:100800002436060F090F060000181800000010100B
:10081000003040FF0101001F01011E00191D1712C9
:10082000003C3C3C3C0000000000B007F7159F185E
:1008300011241FBECFEFD1E2DEBFCDBF00E00CBF61
:1008400015E0A0E0B2E0EAEAF5E700E00BBF02C085
:1008500007900D92A834B107D9F72AE1A8E4B5E0D2
:1008600001C01D92A933B207E1F714E0C8E1D4E05A
:1008700000E006C021970109802FFE010E94903AF6
:10088000C531D10780E00807A9F70E947C0A0C94C3
:10089000A5390C9400002F923F924F925F926F9275
:1008A0007F928F929F92AF92BF92CF92DF92EF9200
:1008B000FF920F931F93CF93DF93CDB7DEB7CA5448
:1008C000D1090FB6F894DEBF0FBECDBF1C014B019E
:1008D0002A0139011EAF0DAF2196FFAEEEAE219772
:1008E0002396BFAEAEAE23970DB71EB725961FAFAA
:1008F0000EAF25978E01045E1F4FC8010E9470192C
:1009000021E0A10161EE77E1CE0101960E941D1860
:100910008B819C819F8F8E8F8D819E81AF81B885C9
:1009200088A399A3AAA3BBA389859A85AB85BC8517
:100930008CA39DA3AEA3BFA38DE0FE013D96DE0177
:10094000989601900D928A95E1F78A8D9B8D9EABCA
:100950008DABC8010E94F819F82ECE0101960E94B5
:100960008319FF20C1F05601AA0CBB1CC301A0E0F3
:10097000B0E08FAB98AFA9AFBAAFE12CF12CC201B8
:10098000A0E0B0E029968CAF9DAFAEAFBFAF299786
:10099000702E612E2DC06BE072E08FE995E10E9410
:1009A0004D11B1018FE995E10E944D1167E28FE988
:1009B00095E10E947C11A9C0D401ED91FC910288BF
:1009C000F389E02DC40119950FB6F8945EBE0FBEF1
:1009D0004DBEBFEFEB1AFB0A0FA918AD29AD3AAD1A
:1009E0000F5F1F4F2F4F3F4F0FAB18AF29AF3AAFDD
:1009F00023962EAD3FAD2397E216F30609F47EC091
:100A00004DB65EB6ADB7BEB7AA19BB090FB6F8941E
:100A1000BEBF0FBEADBFEDB7FEB73196FCAFEBAFBB
:100A2000F101A2A9B3A92FA938AD49AD5AAD0E94D1
:100A3000B63A29960CAD1DAD2EAD3FAD2997060FE8
:100A4000171F281F391FB901A801440F551F661F22
:100A5000771F872D962D0E948E19A5016BAD7CAD59
:100A6000872D962D0E9484198A159B0581F06CE1D3
:100A700072E08FE995E10E946A11872D962D0E9400
:100A8000E6190FB6F8945EBE0FBE4DBE3EC0D4014F
:100A9000ED91FC910680F781E02DC401199501E0EC
:100AA00010E0960121964EAD5FAD21974E0D5F1D72
:100AB0006DAD7EADC4010E9422340BAD1CAD20E0B3
:100AC00030E02C153D0509F477CFF8016191719163
:100AD0008F01762767277627C4012A962FAF2A979A
:100AE0002B963FAF2B970E94D3342A962FAD2A978F
:100AF0002B963FAD2B972F5F3F4FE3CFCE014C9608
:100B00000E94E619CE014C9602C0CE014C960E947E
:100B1000831925968EAD9FAD25970FB6F8949EBF8D
:100B20000FBE8DBFC65BDF4F0FB6F894DEBF0FBEA2
:100B3000CDBFDF91CF911F910F91FF90EF90DF908C
:100B4000CF90BF90AF909F908F907F906F905F906D
:100B50004F903F902F9008950F931F93CF93DF9363
:100B600000D01F92CDB7DEB782E00E94E71021E0EF
:100B7000892B09F020E020938A0583E00E94E7108A
:100B800021E0892B09F020E020938B0588E00E946A
:100B9000E71021E0892B09F020E020938C0587E302
:100BA0000E9404102091880530918905821B930BC7
:100BB00097FDCF968C0136E0159507953A95E1F7AC
:100BC00086E30E9404102091860530918705821BE0
:100BD000930B97FDCF9626E0959587952A95E1F79B
:100BE0001C830B8322273327281B390B3A83298345
:100BF000232B11F4012B61F00E94180DCE010196F8
:100C00000E94AA0E80918D05811102C00E944E0D96
:100C10000F900F900F900F90DF91CF911F910F9138
:100C200008954F925F926F927F928F929F92AF92B0
:100C3000BF92CF92DF92EF92FF920F931F93CF93C9
:100C4000DF93CDB7DEB768970FB6F894DEBF0FBE5F
:100C5000CDBF29833A834B835C836D837E838F83EF
:100C60009887A986BA86CB86DC86ED86FE860F87B6
:100C7000188B49805A806B807C80C984DA84EB842D
:100C8000FC84B301A20180917F050E94DF0B0091DB
:100C90007B0510917C05012E000C220B330BDC012F
:100CA000CB01801B910BA20BB30BB7FD2EC0B30180
:100CB000A20180917F050E94DF0B00917B051091BE
:100CC0007C05012E000C220B330BDC01CB01801BB9
:100CD000910BA20BB30B81349140A105B105D4F463
:100CE000B301A20180917F050E94DF0B20917B055B
:100CF00030917C058901330F220B330B4B015C01D2
:100D0000801A910AA20AB30A0BC01D8A1E8A1F8A82
:100D1000188E0AC050E4852E99249394A12CB12CEE
:100D20008D8A9E8AAF8AB88EB701A60180917F0511
:100D30000E94DF0B00917B0510917C05012E000CB9
:100D4000220B330BDC01CB01801B910BA20BB30BED
:100D5000B7FD32C0B701A60180917F050E94DF0B6D
:100D600000917B0510917C05012E000C220B330BAA
:100D7000DC01CB01801B910BA20BB30B81349140A2
:100D8000A105B105F4F4B701A60180917F050E9489
:100D9000DF0BE0917B05F0917C054F01FF0FAA0866
:100DA000BB089B01AC01281939094A095B09298B49
:100DB0003A8B4B8B5C8B0FC0198A1A8A1B8A1C8A50
:100DC0000AC040E4842E99249394A12CB12C898AE2
:100DD0009A8AAB8ABC8AB301A20180917F050E94E6
:100DE000270C00917D0510917E05012E000C220B31
:100DF000330BDC01CB01801B910BA20BB30BB7FDB6
:100E00002EC0B301A20180917F050E94270C0091A2
:100E10007D0510917E05012E000C220B330BDC01A9
:100E2000CB01801B910BA20BB30B893D9105A10552
:100E3000B105CCF4B301A20180917F050E94270C7B
:100E400020917D0530917E058901330F220B330BF4
:100E50002B013C01401A510A620A730A09C0412C55
:100E6000512C320105C038ED432E512C612C712CD0
:100E7000B701A60180917F050E94270C00917D0596
:100E800010917E05012E000C220B330BDC01CB01EF
:100E9000801B910BA20BB30BB7FD30C0B701A601AD
:100EA00080917F050E94270C00917D0510917E05A1
:100EB000012E000C220B330BDC01CB01801B910BAC
:100EC000A20BB30B893D9105A105B105DCF4B70177
:100ED000A60180917F050E94270C00917D0510914D
:100EE0007E05012E000C220B330B5B016C01A01A56
:100EF000B10AC20AD30A9601850108C000E010E0D9
:100F0000980104C008ED10E020E030E080918405F5
:100F100090918505DC01ED91FC9100A0F1A1E02DFF
:100F20002FE1E22EF12C29893A89A2016D897E896F
:100F3000199568960FB6F894DEBF0FBECDBFDF914E
:100F4000CF911F910F91FF90EF90DF90CF90BF90C6
:100F5000AF909F908F907F906F905F904F9008958B
:100F600010927C0510927B0510927E0510927D05F3
:100F700010928105109280051092830510928205CF
:100F800010928705109286051092890510928805A7
:100F9000EBE7F5E0158A168A178A108E118E128EED
:100FA000138E148E389685E1EB31F80799F72FEF01
:100FB00049E06AE088E495E00C94F930CF93DF9340
:100FC0000E94A20F62E082E00E947B1062E083E058
:100FD0000E947B1062E088E00E947B1087E30E9401
:100FE0000410EC0186E30E9404109093870580931F
:100FF0008605D0938905C093880540E855E260E0F6
:1010000070E08FE995E10E946F158FE995E10E94EC
:10101000401310928F0510928E0588E495E090930E
:1010200085058093840540E050E0BA010E94BA3102
:101030008091840590918505DC01ED91FC910488F7
:10104000F589E02D63E019958091840590918505DF
:10105000DC01ED91FC91068CF78DE02D6FE170E0E5
:10106000199566E081EE97E10E940A17811119C077
:1010700060E372E08FE995E10E946A116CE572E02D
:101080008FE995E10E946A116BE772E08FE995E1C3
:101090000E946A1165E972E08FE995E10E946A1188
:1010A000FFCF0E947E0C0E94EB0C0E944E0D80ED43
:1010B00092E0DF91CF910C94840D2F923F924F924A
:1010C0005F926F927F928F929F92AF92BF92CF92D8
:1010D000DF92EF92FF920F931F93CF93DF93CDB7E1
:1010E000DEB72A970FB6F894DEBF0FBECDBFD82E5D
:1010F000C92E280139014A016A8779870E944B0F5E
:101100007B018C0120E030E0A9016983FA820B8326
:101110001C832D833E834F8358878FE995E10E947E
:1011200040132D2C3C2C0E944B0F5B016C019B014A
:10113000A60160E070E080E090E0A980BA80CB80FA
:10114000DC80ED80FE800F8118850E94C13A52013B
:10115000630174010A8519850E94CA3A09F08CF46A
:101160008FE995E10E94F412892BD1F38FE995E183
:101170000E942013F10181931F018A30A1F680E0C3
:1011800001C081E02A960FB6F894DEBF0FBECDBF36
:10119000DF91CF911F910F91FF90EF90DF90CF9053
:1011A000BF90AF909F908F907F906F905F904F9087
:1011B0003F902F9008954F925F926F927F928F92FF
:1011C0009F92AF92BF92CF92DF92EF92FF920F93D6
:1011D0001F93CF93DF93CDB7DEB7CF59D1090FB6A9
:1011E000F894DEBF0FBECDBFCC57DF4F2883C45865
:1011F000D040CB57DF4F3883C558D040CA57DF4F58
:101200004883C658D040C957DF4F5883C758D0408D
:10121000C857DF4F6883C858D040C757DF4F78831F
:10122000C958D040C657DF4F8883CA58D040C557E9
:10123000DF4F9883CB58D040C457DF4FA882CC589B
:10124000D040C357DF4FB882CD58D040C257DF4F90
:10125000C882CE58D040C157DF4FD882CF58D04037
:10126000C057DF4FE882C059D040CF56DF4FF882D9
:10127000C159D040CE56DF4F0883C259D040CD5619
:10128000DF4F1883C359D040CC57DF4FA880B980B7
:10129000CA80DB80C458D040C857DF4F488059808F
:1012A0006A807B80C858D040C457DF4F288139817D
:1012B0004A815B81CC58D040C856DF4F28833983A0
:1012C0004A835B83C859D040C057DF4F88819981DA
:1012D000AA81BB81C059D040CC56DF4F8883998307
:1012E000AA83BB83C459D040E12CF12CE114F10452
:1012F00009F048C066ED72E08FE995E10E944D115A
:101300002AE030E0B301A2018FE995E10E94E411E7
:1013100067ED72E08FE995E10E944D112AE030E01F
:10132000B601A5018FE995E10E94E41167ED72E035
:101330008FE995E10E944D112AE030E0CC56DF4F55
:10134000488159816A817B81C459D0408FE995E1F8
:101350000E94E41167ED72E08FE995E10E944D1162
:101360002AE030E0C856DF4F488159816A817B818D
:10137000C859D0408FE995E10E942E12EE24E394E3
:10138000F12CB4CF91E0E916F10441F500E117E248
:1013900020E030E040E050E060E070E0CE010196F7
:1013A0000E945D088111A0CF89818E3409F09ECF03
:1013B00089ED92E00E94840DCE0103960E94873948
:1013C0004C0190938F0580938E0561E48FE995E140
:1013D0000E947C1132E0E32EF12C88CFA2E0EA16C5
:1013E000F10409F06CC000ED17E020E030E040E0CF
:1013F00050E060E070E0CE0101960E945D08182F79
:101400008AEE92E00E94840D898111114AC08735CD
:1014100009F047C061E48FE995E10E947C114AE040
:1014200050E0BE016E577F4FCE0103960E945C389C
:10143000C456DF4F688379838A839B83CC59D0401D
:101440004AE050E060E070E0CE57DF4F888199813C
:10145000C258D0400E945C38E0918E05F0918F0513
:10146000E819F90923E0EE0FFF1F2A95E1F7E55887
:10147000FA4FC456DF4F288139814A815B81CC59AC
:10148000D040258B368B478B508F31E0831A9108E3
:10149000618F728F838F948F84EF92E00E94840D0E
:1014A00025CF853441F0112309F420CF8EEF92E04F
:1014B0000E94840D19CF83E0E82EF12C17CF43E072
:1014C000E416F10409F012CFC156DF4F0FB6F894BD
:1014D000DEBF0FBECDBFDF91CF911F910F91FF9067
:1014E000EF90DF90CF90BF90AF909F908F907F90C4
:1014F0006F905F904F900895CF93DF93CDB7DEB795
:1015000067970FB6F894DEBF0FBECDBF0E94DE070F
:1015100019861A861B861C861D861E861F86188ABB
:1015200000E010E05524539410928A0510928B0528
:1015300010928C0510928D050E94AC0580918A0551
:10154000882319F081E090E006C080918B05882304
:1015500031F08FEF9FEF0E94400E50928D058091E9
:101560008C05882309F490C0012BB1F40E94C40DAE
:1015700029873A874B875C876D877E878F87988B13
:1015800089E093E00E94840D88E00E94E710892B97
:10159000D9F301E010E078C088E00E94E7100197DD
:1015A000D9F30E94C40D59016A017B018C01298580
:1015B0003A854B855C856D857E858F8598890E94EF
:1015C000DB088DE093E00E94840D2BE7822E25E05E
:1015D000922EE0E0F0E080918E0590918F050197CA
:1015E000E817F9070CF049C03F018FEF681A780A35
:1015F000D30183E0AA0FBB1F8A95E1F7A057BA4F2A
:1016000093E0EE0FFF1F9A95E1F7E057FA4FAC9089
:101610001196BC9011971296CC9012971396DC906D
:1016200013971496EC9014971596FC9015971696B0
:101630000C91169717961C9120813181428153811C
:1016400064817581868197810E941106F401418D24
:10165000528D638D748D2AE0CE0141960E94C51291
:1016600089899A890E94840DCE0141960E94401278
:10167000F8E08F0E911CF301AECF88E00E94E710D6
:10168000892BD9F300E010E080918D05882309F4BF
:101690004BCF0115110519F480ED92E002C089E0ED
:1016A00093E00E94840D0E94EB0C0E944E0D3CCFF3
:1016B000AF92BF92CF92DF92EF92FF920F931F9360
:1016C000282FCB01BA01022E000C330BD90144E0C4
:1016D000AA0FBB1F4A95E1F7AE5EBC4F1496AD90C2
:1016E000BD90CD90DC901797220F331FF901EE5378
:1016F000FB4FE080F1800F2C000C000B110BFD0163
:101700003C9623812F9322812F9321812F931C9626
:101710002C912F9320E030E0A9010E94C9160F9070
:101720000F900F900F901F910F91FF90EF90DF900F
:10173000CF90BF90AF900895AF92BF92CF92DF92BB
:10174000EF92FF920F931F93282FCB01BA01022E25
:10175000000C330BD90144E0AA0FBB1F4A95E1F7F7
:10176000AE5EBC4FAD90BD90CD90DC901397220F34
:10177000331FF901EA54FB4FE080F1800F2C000C7D
:10178000000B110BFD01389623812F9322812F939B
:1017900021812F9318962C912F9320E030E0A901FE
:1017A0000E94C9160F900F900F900F901F910F91EC
:1017B000FF90EF90DF90CF90BF90AF9008954F9241
:1017C0005F926F927F92AF92BF92CF92DF92EF9231
:1017D000FF920F931F93282FCB01BA01A22F220F44
:1017E000BB0BFD0124E0EE0FFF1F2A95E1F7EE5E33
:1017F000FC4FE484F5840685178524813581468174
:101800005781FD01EE0FFF1FEE53FB4F0190F0815A
:10181000E02D2F01FF0F660877087F926F925F928D
:101820004F92A12CB12C65010E94C9160F900F9008
:101830000F900F901F910F91FF90EF90DF90CF903E
:10184000BF90AF907F906F905F904F9008954F92B0
:101850005F926F927F92AF92BF92CF92DF92EF92A0
:10186000FF920F931F93282FCB01BA01A22F220FB3
:10187000BB0BFD0124E0EE0FFF1F2A95E1F7EE5EA2
:10188000FC4FE084F18402851385208131814281FF
:101890005381FD01EE0FFF1FEA54FB4F0190F081D1
:1018A000E02D2F01FF0F660877087F926F925F92FD
:1018B0004F92A12CB12C65010E94C9160F900F9078
:1018C0000F900F901F910F91FF90EF90DF90CF90AE
:1018D000BF90AF907F906F905F904F900895EBE72F
:1018E000F5E08281938184599F4F20813181205678
:1018F0003F4F36832583908787830895EBE7F5E094
:1019000082E084838FE593E09183808383E993E091
:10191000938382830C946F0C20917B0530917C051E
:1019200037FD12C0E0917F05EE0FFF0BEE53FB4F2A
:1019300080819181AC014F5351402417350734F019
:101940009C012054314002C020E030E080917D05B0
:1019500090917E0597FD12C0E0917F05EE0FFF0B81
:10196000EA54FB4F40815181BA01675D71098617C6
:10197000970734F0CA01885D910902C080E090E0C9
:1019800030937C0520937B0590937E0580937D05A5
:101990000895EBE7F5E085819681805A910991835E
:1019A0008083878190858C569109938382830C94E0
:1019B0008C0CEBE7F5E04781508522813381A581CE
:1019C000B6810190F081E02DBD016E1B7F0BCA0135
:1019D000821B930B0895AF92BF92CF92DF92EF924A
:1019E000FF920F931F93EBE7F5E022813381408153
:1019F0005181618572858481E6E38E02C0011124E4
:101A0000E8EDAE2EB12CF0E4CF2EDD24D394E12C02
:101A1000F12C00E010E08E589C4F0E944B041F9167
:101A20000F91FF90EF90DF90CF90BF90AF9008950F
:101A3000AF92BF92CF92DF92EF92FF920F931F93DC
:101A40000E94D90C7C0123E0E21AF1088B010350BB
:101A50001109EBE7F5E027813085235031094581F5
:101A6000568143505109A185B285848166E386027F
:101A7000C001112467E0A62EB12C77E0C72ED12C2F
:101A8000BD018E589C4F0E944B041F910F91FF90F7
:101A9000EF90DF90CF90BF90AF9008950F931F937A
:101AA0000E94D90C00E018EF23E030E0AC018091F7
:101AB0008405909185050E94812C1F910F910895B6
:101AC000EBE7F5E0DC014D915C91119760EA649FD2
:101AD0009001659F300D112440815181240F351FE5
:101AE0003183208312962D913C9113974CE6429FAF
:101AF000C001439F900D112422813381820F931FD7
:101B0000938382830C948C0CCF92DF92EF92FF929E
:101B10000F931F93CF93DF936C01CBE7D5E08985BB
:101B20009A85DC01ED91FC91048CF58DE02D20EE81
:101B3000E22E27E0F22E08E110E020E431E048ED4B
:101B400050E060E070E019956FE178EF89859A8543
:101B50000E94C02F4CED50E065E070E089859A85C9
:101B60000E94B42F62E089859A850E94BA2FB6013F
:101B700089859A85DF91CF911F910F91FF90EF900A
:101B8000DF90CF900C946A11CF92DF92EF92FF9288
:101B90000F931F93CF93DF93CDB7DEB728970FB680
:101BA000F894DEBF0FBECDBF8BE7E82E85E0F82EA0
:101BB000F70145815681052E000C660B770B848159
:101BC0000E94580B162FC72ED82E092FF7014781D8
:101BD0005085052E000C660B770B84810E949C0BB0
:101BE000212F3C2D4D2D502F28960FB6F894DEBF97
:101BF0000FBECDBFDF91CF911F910F91FF90EF905E
:101C0000DF90CF9008958091800590918105863076
:101C100091058CF0E0917F05EE0FFF0BEE53FB4F2B
:101C200020813181A90145505109841795072CF075
:101C3000C901069702C086E090E0909381058093E9
:101C400080058091820590918305863091058CF006
:101C5000E0917F05EE0FFF0BEA54FB4F20813181AD
:101C6000A90145505109841795072CF0C901069721
:101C700002C086E090E090938305809382050895EA
:101C80008F929F92AF92BF92CF92DF92EF92FF928C
:101C9000CF93DF9320917F05422F022E000C550B2E
:101CA000840F951F8630910514F085E090E0EC01DB
:101CB00097FF02C0C0E0D0E0C417D50709F43FC0C9
:101CC0004091820550918305052E000C660B770B21
:101CD000822F0E949C0B6B017C018091800590916A
:101CE0008105AC01990F660B770B80917F050E94EF
:101CF000580B4B015C01B701A6018C2F0E94270CE9
:101D00006B017C01B501A4018C2F0E94DF0B709345
:101D1000810560938005D0928305C0928205C093AF
:101D20007F050E94030EDF91CF91FF90EF90DF902F
:101D3000CF90BF90AF909F908F900C94C90CDF9183
:101D4000CF91FF90EF90DF90CF90BF90AF909F909A
:101D50008F900895CF93DF9300D01F92CDB7DEB759
:101D6000FC01809180059091810520813181280FAF
:101D7000391F309381052093800520918205309191
:101D8000830582819381820F931F909383058093B3
:101D900082050E94030E0E94D90C1A8219821C82AD
:101DA0001B82653071051CF42FEF3FEF05C06C33CB
:101DB000714024F021E030E03A8329838530910599
:101DC0001CF48FEF9FEF05C0843D910524F081E066
:101DD00090E09C838B8389819A81892B21F48B816C
:101DE0009C81892B39F081E080938D05CE0101968D
:101DF0000E94600D0F900F900F900F90DF91CF9188
:101E000008951F920F920FB60F9211242F933F93B4
:101E10008F939F93AF93BF9380913115909132151B
:101E2000A0913315B09134153091301523E0230F74
:101E30002D3720F40196A11DB11D05C026E8230F02
:101E40000296A11DB11D20933015809331159093FA
:101E50003215A0933315B0933415809135159091B8
:101E60003615A0913715B09138150196A11DB11DF9
:101E70008093351590933615A0933715B093381588
:101E8000BF91AF919F918F913F912F910F900FBE76
:101E90000F901F9018952FB7F8946091311570919D
:101EA000321580913315909134152FBF08953FB7A7
:101EB000F8948091351590913615A0913715B09111
:101EC000381526B5A89B05C02F3F19F00196A11D16
:101ED000B11D3FBFBA2FA92F982F8827820F911DC0
:101EE000A11DB11DBC01CD0142E0660F771F881F07
:101EF000991F4A95D1F70895CF92DF92EF92FF9202
:101F0000CF93DF936B017C010E94570FEB01C1144B
:101F1000D104E104F10479F00E94570F6C1B7D0B92
:101F2000683E7340A0F381E0C81AD108E108F108C7
:101F3000C851DC4FECCFDF91CF91FF90EF90DF9055
:101F4000CF900895789484B5826084BD84B5816013
:101F500084BD85B5826085BD85B5816085BDEEE6B1
:101F6000F0E0808181608083E1E8F0E01082808190
:101F700082608083808181608083E0E8F0E08081FE
:101F800081608083E1EBF0E0808184608083E0EB1E
:101F9000F0E0808181608083E1E9F0E0808182600F
:101FA0008083808181608083E0E9F0E080818160CE
:101FB0008083E1EAF0E080818260808380818160BB
:101FC0008083E0EAF0E0808181608083E1E2F1E0FB
:101FD000808182608083808181608083E0E2F1E0A3
:101FE000808181608083EAE7F0E080818460808383
:101FF000808182608083808181608083808180682D
:1020000080831092C1000895863308F08653909122
:102010007B00282F2870977F922B90937B008770EE
:102020002091000290E4299F90011124822B80933B
:102030007C0080917A00806480937A0080917A009D
:1020400086FDFCCF809178002091790090E0922B62
:10205000089590E0FC013197E131F10508F04AC0A4
:102060008827EE58FF4F8F4F0C94903A8091800054
:102070008F7703C0809180008F7D809380000895CA
:1020800084B58F7702C084B58F7D84BD089580911B
:10209000B0008F7703C08091B0008F7D8093B00037
:1020A0000895809190008F7707C0809190008F7D78
:1020B00003C080919000877F809390000895809165
:1020C000A0008F7707C08091A0008F7D03C0809112
:1020D000A000877F8093A0000895809120018F77D2
:1020E00007C0809120018F7D03C080912001877FF0
:1020F000809320010895CF93DF9390E0FC01E05C92
:10210000FD4F2491FC01EA57FD4F8491882361F132
:1021100090E0880F991FFC01E050FD4FC591D491CC
:10212000FC01EA51FD4FA591B491611109C09FB71F
:10213000F8948881209582238883EC912E230BC00C
:10214000623061F49FB7F8943881822F80958323A1
:102150008883EC912E2B2C939FBF06C08FB7F894E9
:10216000E8812E2B28838FBFDF91CF9108951F9395
:10217000CF93DF93282F30E0F901E650FE4F849192
:10218000F901E05CFD4FD491F901EA57FD4FC4918C
:10219000CC23C9F0162F81110E942910EC2FF0E0FA
:1021A000EE0FFF1FEA51FD4FA591B4918FB7F89440
:1021B000111105C09C91ED2FE095E92302C0EC912F
:1021C000ED2BEC938FBFDF91CF911F910895CF93AB
:1021D000DF93282F30E0F901E650FE4F8491F9019A
:1021E000E05CFD4FD491F901EA57FD4FC491CC2337
:1021F00091F081110E942910EC2FF0E0EE0FFF1FEB
:10220000E453FD4FA591B491EC91ED2381E090E072
:1022100021F480E002C080E090E0DF91CF9108954A
:10222000CF92DF92EF92FF920F931F93CF93DF93A2
:102230006C01EB017B01E40EF51E00E010E0CE1511
:10224000DF0561F06991D601ED91FC910190F0817B
:10225000E02DC6011995080F191FF1CFC801DF91B4
:10226000CF911F910F91FF90EF90DF90CF90089545
:102270006115710579F0FB0101900020E9F73197B4
:10228000AF01461B570BDC01ED91FC910280F381FD
:10229000E02D199480E090E008950C943811DC0151
:1022A000ED91FC910190F081E02D19940F931F9313
:1022B000CF93DF93EC016DE00E944F118C016AE037
:1022C000CE010E944F11800F911FDF91CF911F917E
:1022D0000F9108950F931F93CF93DF93EC010E940A
:1022E00038118C01CE010E945611800F911FDF9191
:1022F000CF911F910F9108950F931F93CF93DF9369
:10230000EC010E944F118C01CE010E945611800FEA
:10231000911FDF91CF911F910F9108958F929F92FE
:10232000AF92BF92CF92DF92EF92FF920F931F93E3
:10233000CF93DF93CDB7DEB7A1970FB6F894DEBF8A
:102340000FBECDBF6C01142FE52FCB01022F19A2B8
:10235000223008F40AE07E0121E2E20EF11C802E18
:10236000912CA12CB12C612F7E2FA50194010E94EC
:102370004F3A029F1019112481E0E81AF1081A302F
:1023800014F4105D01C0195CF7011083122FE32FC4
:10239000CA01232B242B252B31F7B701C6010E943C
:1023A0003811A1960FB6F894DEBF0FBECDBFDF91F6
:1023B000CF911F910F91FF90EF90DF90CF90BF9042
:1023C000AF909F908F900895CF92DF92EF92FF92FF
:1023D0000F931F93CF93DF93EC016A017B012115CB
:1023E000310579F4E881F9810190F081E02D642FC5
:1023F000DF91CF911F910F91FF90EF90DF90CF90E1
:1024000019942A303105E9F477FF1AC06DE20E9471
:102410004F118C0144275527BA014C195D096E09EB
:102420007F092AE0CE010E948E11800F911FDF915B
:10243000CF911F910F91FF90EF90DF90CF90089573
:102440002AE0B701A601CE01DF91CF911F910F9134
:10245000FF90EF90DF90CF900C948E110F931F930D
:10246000CF93DF93EC010E94E4118C01CE010E9416
:102470005611800F911FDF91CF911F910F910895F9
:10248000FC01808191810C949137CF93DF93EC0113
:1024900088819981009711F00E94913719821882E2
:1024A0001D821C821B821A82DF91CF9108950F93A7
:1024B0001F93CF93DF93EC018B016F5F7F4F888178
:1024C00099810E941336009731F0998388831B838A
:1024D0000A8381E001C080E0DF91CF911F910F91CD
:1024E0000895CF93DF93EC0188819981892B29F09E
:1024F0008A819B818617970760F4CE010E9457124C
:10250000882341F08C819D81892B19F4E881F98120
:10251000108281E0DF91CF910895EF92FF920F93A7
:102520001F93CF93DF93EC017B018A01BA010E94D4
:102530007112811104C0CE010E94451207C01D8393
:102540000C83B701888199810E94D239CE01DF9135
:10255000CF911F910F91FF90EF900895CF93DF934C
:10256000EC016115710559F0FB0101900020E9F7BC
:102570003197AF01461B570B0E948D1202C00E947B
:102580004512CE01DF91CF9108950F931F93CF9302
:10259000DF93CDB7DEB7A2970FB6F894DEBF0FBEBC
:1025A000CDBF8C01CB01BA01F801118210821382D8
:1025B000128215821482168230E0AE014F5F5F4FA7
:1025C0000E94E839BE016F5F7F4FC8010E94AE12C2
:1025D000A2960FB6F894DEBF0FBECDBFDF91CF91AC
:1025E0001F910F9108950895FC0124853585F90107
:1025F000E05CFF4F80819181329620813181821B86
:10260000930B8F7399270895DC011C96ED91FC9133
:102610001D97DF01A05CBF4F2D913C911197129641
:102620008D919C9111972817390739F08D919C91C4
:10263000E80FF91F808190E008958FEF9FEF0895D4
:10264000FC01A485B585FD01E05CFF4F208131814F
:102650003296808191812817390779F080819181A4
:10266000A80FB91F8C91208131812F5F3F4F2F73AD
:1026700033273183208390E008958FEF9FEF0895F3
:10268000FC0181A1882329F0A489B5898C9186FF5A
:10269000FBCF11A208950F931F93CF93DF93FC01FB
:1026A000A685B7858D01005C1F4FE801888199815F
:1026B00001968F739927AD014E5B5F4FEA01288128
:1026C000398182179307D1F3E80128813981A20F5C
:1026D000B31F6C93A685B785A05CBF4F11969C93E2
:1026E0008E93A689B7892C9181E090E0078C02C077
:1026F000880F991F0A94E2F7822B8C9381E081A3C3
:102700000488F589E02D80818064808381E090E0F9
:10271000DF91CF911F910F910895FB01E05CFF4F76
:10272000208131812F5F3F4F2F733327DB01AE5B59
:10273000BF4F4D915C912417350741F04081518185
:10274000DB01A40FB51F8C933183208308951F9262
:102750000F920FB60F9211240BB60F922F933F9347
:102760004F935F936F937F938F939F93AF93BF9399
:10277000EF93FF938091C00082FD07C08091C60057
:102780006DE977E10E948D1302C08091C600FF9130
:10279000EF91BF91AF919F918F917F916F915F91D9
:1027A0004F913F912F910F900BBE0F900FBE0F9046
:1027B0001F9018951F920F920FB60F9211240BB60F
:1027C0000F922F933F934F935F936F937F938F93CA
:1027D0009F93AF93BF93EF93FF938091C80082FDC7
:1027E00007C08091CE0065E177E10E948D1302C0A1
:1027F0008091CE00FF91EF91BF91AF919F918F910A
:102800007F916F915F914F913F912F910F900BBEF0
:102810000F900FBE0F901F9018951F920F920FB63A
:102820000F9211240BB60F922F933F934F935F9308
:102830006F937F938F939F93AF93BF93EF93FF9388
:102840008091D00082FD07C08091D6006DE876E1CE
:102850000E948D1302C08091D600FF91EF91BF912D
:10286000AF919F918F917F916F915F914F913F9128
:102870002F910F900BBE0F900FBE0F901F901895C9
:102880001F920F920FB60F9211240BB60F922F9337
:102890003F934F935F936F937F938F939F93AF93E8
:1028A000BF93EF93FF938091300182FD07C0809129
:1028B000360165E076E10E948D1302C080913601F9
:1028C000FF91EF91BF91AF919F918F917F916F9108
:1028D0005F914F913F912F910F900BBE0F900FBEC4
:1028E0000F901F9018951F920F920FB60F92112400
:1028F0000BB60F922F933F938F939F93EF93FF937A
:102900002091991730919A1780919B1790919C175D
:102910002817390731F48091C1008F7D8093C10061
:1029200014C0E0919B17F0919C17E75AF84E208154
:1029300080919B1790919C1701968F739927909384
:102940009C1780939B172093C600FF91EF919F9156
:102950008F913F912F910F900BBE0F900FBE0F9054
:102960001F9018951F920F920FB60F9211240BB65D
:102970000F922F933F938F939F93EF93FF93209109
:10298000111730911217809113179091141728176F
:10299000390731F48091C9008F7D8093C90014C03C
:1029A000E0911317F0911417EF52F94E20818091A6
:1029B00013179091141701968F73992790931417FA
:1029C000809313172093CE00FF91EF919F918F91E9
:1029D0003F912F910F900BBE0F900FBE0F901F9045
:1029E00018951F920F920FB60F9211240BB60F92EB
:1029F0002F933F938F939F93EF93FF93209189168B
:102A000030918A1680918B1690918C162817390771
:102A100031F48091D1008F7D8093D10014C0E0917A
:102A20008B16F0918C16E75BF94E208180918B1606
:102A300090918C1601968F73992790938C168093A2
:102A40008B162093D600FF91EF919F918F913F912C
:102A50002F910F900BBE0F900FBE0F901F901895E7
:102A60001F920F920FB60F9211240BB60F922F9355
:102A70003F938F939F93EF93FF9320910116309193
:102A8000021680910316909104162817390731F425
:102A9000809131018F7D8093310114C0E091031644
:102AA000F0910416EF53FA4E208180910316909115
:102AB000041601968F73992790930416809303163A
:102AC00020933601FF91EF919F918F913F912F912C
:102AD0000F900BBE0F900FBE0F901F901895CF92C6
:102AE000DF92EF92FF920F931F93CF93DF93EC014E
:102AF0006A017B014115514E6105710509F1EC89AF
:102B0000FD8981E090E008A002C0880F991F0A9417
:102B1000E2F7808360E079E08DE390E0A701960121
:102B20000E944F3A89019A01015011092109310986
:102B30003695279517950795980101151041A8F02E
:102B4000EC89FD89108260E874E88EE190E0A701CD
:102B500096010E944F3ADA01C9010197A109B10912
:102B6000B695A795979587959C01E889F989308353
:102B7000EA89FB89208319A2EE89FF89408181E0DF
:102B800090E09C010C8C02C0220F331F0A94E2F7E4
:102B9000242B2083EE89FF8940819C010D8C02C08B
:102BA000220F331F0A94E2F7242B2083EE89FF893A
:102BB00040819C010E8C02C0220F331F0A94E2F761
:102BC000242B2083EE89FF8920810F8C02C0880F7F
:102BD000991F0A94E2F7809582238083DF91CF9139
:102BE0001F910F91FF90EF90DF90CF900895CF92BB
:102BF000DF92EF92FF92EFE9F5E11382128288EE05
:102C0000C82E83E0D82EE12CF12CC482D582E68236
:102C1000F78262ED74E0718360838DE997E19587B7
:102C2000848789E597E19787868785EC90E0918B8B
:102C3000808B84EC90E0938B828B80EC90E0958B82
:102C4000848B81EC90E0978B868B82EC90E0918F67
:102C5000808F86EC90E0938F828F44E0448F33E046
:102C6000358F27E0268F95E0978F81E080A3EDE7F1
:102C7000F5E113821282C482D582E682F7827183E3
:102C80006083A5E1B7E1B587A487A1EDB6E1B78779
:102C9000A687ADECB0E0B18BA08BACECB0E0B38B11
:102CA000A28BA8ECB0E0B58BA48BA9ECB0E0B78BFD
:102CB000A68BAAECB0E0B18FA08FAEECB0E0B38FE2
:102CC000A28F448F358F268F978F80A3EBE5F5E198
:102CD00013821282C482D582E682F7827183608376
:102CE000ADE8B6E1B587A487A9E4B6E1B787A687C2
:102CF000A5EDB0E0B18BA08BA4EDB0E0B38BA28BBF
:102D0000A0EDB0E0B58BA48BA1EDB0E0B78BA68BA6
:102D1000A2EDB0E0B18FA08FA6EDB0E0B38FA28F8F
:102D2000448F358F268F978F80A3E9E3F5E11382D7
:102D30001282C482D582E682F7827183608365E065
:102D400076E17587648761EC75E17787668765E36F
:102D500071E0718B608B64E371E0738B628B60E375
:102D600071E0758B648B61E371E0778B668B62E356
:102D700071E0718F608F66E371E0738F628F448FB3
:102D8000358F268F978F80A3FF90EF90DF90CF90A5
:102D900008954F925F926F927F92AF92BF92CF92BF
:102DA000DF92EF92FF920F931F93CF93DF93CDB7F4
:102DB000DEB729013A019B01AC0124193509460906
:102DC00057098A899B89AC89BD89BC01CD016A19E3
:102DD0007B098C099D090E943F3AA801970124199B
:102DE0003509460957090E94713ACA01B9016A0DAD
:102DF0007B1D8C1D9D1DDF91CF911F910F91FF9029
:102E0000EF90DF90CF90BF90AF907F906F905F90EA
:102E10004F9008950F931F93CF93DF93EC01462FAC
:102E200061E00E940222882391F08E01045F1F4F0F
:102E300041E0BE01C8010E94B827882351F0B801C3
:102E4000CE018A960E94DE1A91E081110AC090E0BC
:102E500008C040E0BE01C8010E94B8278823B9F32A
:102E6000EECF892FDF91CF911F910F910895FC0133
:102E7000DB0112968D919C9113979383828384EF4B
:102E800094E09183808314968C9114978483159693
:102E90008C911597858316964D915D916D917C91DE
:102EA000199746835783608771871A964D915D9174
:102EB0006D917C911D9742875387648775871E9615
:102EC0004D915D916D917C91519746875787608BAD
:102ED000718B52968C915297828B53964D915D9146
:102EE0006D917C915697438B548B658B768B57965F
:102EF0004D915D916D917C915A97478B508F618F69
:102F0000728F5B968D919C915C97948F838F0895BF
:102F10004F925F926F927F928F929F92AF92BF92E9
:102F2000CF92DF92EF92FF920F931F93CF93DF9395
:102F3000CDB7DEB7C754D1090FB6F894DEBF0FBEC8
:102F4000CDBF6C015A014901665D7F4F7E018EE164
:102F5000E80EF11CC7010E9437171C821B8284EF08
:102F600094E09A8389831E828501FE0131963F0198
:102F700027016FE270E0C8010E94C7390097D9F1BC
:102F8000F80120812F3219F40F5F1F4FF2CF801B01
:102F90008D3008F08CE0E82EF12CA701B801CE01AD
:102FA000CB960E94D939EBE3F0E0EC0FFD1FEE0D5C
:102FB000FF1D1082C3010E945A1D21E0AE01455C35
:102FC0005F4FB201C3010E948E1E811109C0F6013C
:102FD0001382128284EF94E091838083158214C05F
:102FE0000E0D1F1DC2010E945A1D942D852D230117
:102FF000692E782EBECF0A191B09F40111830083B4
:10300000B201C6010E943717C601C95BDF4F0FB678
:10301000F894DEBF0FBECDBFDF91CF911F910F910E
:10302000FF90EF90DF90CF90BF90AF909F908F90E8
:103030007F906F905F904F900895CF92DF92FF92B4
:103040000F931F93CF93DF93CDB7DEB7C955D10947
:103050000FB6F894DEBF0FBECDBF6C018A01F22E11
:103060009E01285A3F4FCE01CB960E9488176A9640
:103070008EAD9FAD6A97080F191FF80180818111ED
:103080000AC0BE01655C7F4FCE0101960E943717D2
:103090004EED54E03EC019A218A284EF94E09F8F39
:1030A0008E8F1BA221968FAD2197811104C0C6017E
:1030B0000E94701934C082502F2DA801823048F42C
:1030C0006BE078E1CE014E960E948E1E81110EC0FB
:1030D000EECFBE01655C7F4FCE014E960E948E1EE4
:1030E000882329F3CE01CB960E945A1D9F2D9670FE
:1030F00041F049A95AA96BA97CA9CE014E960E941C
:103100007D1CBE01625E7F4FCE0101960E94371783
:10311000A801BE016F5F7F4FC6010E943B19C60127
:10312000C75ADF4F0FB6F894DEBF0FBECDBFDF9199
:10313000CF911F910F91FF90DF90CF900895E1EE16
:10314000F7E1158216821186138682E090E0A0E0F6
:10315000B0E084879587A687B78713A215A614A623
:1031600084EF94E093A782A717A60895CF93DF93E7
:103170001F92CDB7DEB76983DC01ED91FC9102802F
:10318000F381E02D41E050E0BE016F5F7F4F199564
:103190000F90DF91CF910895CF93DF93EC01898D4C
:1031A0009A8D009739F481E090E09B838A8380E0D8
:1031B00090E00BC0FC01138212820E947C1FE98DFB
:1031C000FA8D22813381232B71F7DF91CF910895FE
:1031D000FC01818D928D009711F00C94131D0895C0
:1031E000CF93DF931F92CDB7DEB741E050E0BE0131
:1031F0006F5F7F4F0E942F1B019719F4898190E028
:1032000002C08FEF9FEF0F90DF91CF910895FC01E7
:10321000818D928D009711F00C94F0188FEF9FEF35
:1032200008950F931F93CF93DF93FC01818D928DAF
:103230000097B9F0EF010E94F0188C010F3F8FEF5B
:10324000180791F0898D9A8DFC014285538564851C
:10325000758541505109610971090E947D1CC801A1
:1032600005C080E090E002C08FEF9FEFDF91CF912B
:103270001F910F910895EF92FF920F931F93CF9399
:10328000DF93EC017B018A011B821A8288EE93E0B6
:10329000A0E0B0E08C839D83AE83BF8384EE94E096
:1032A000998388838DE190E00E94FC369A8F898F04
:1032B000009779F02DE1F701DC0101900D922A953C
:1032C000E1F74CE050E0B801CE010C960E94D939EC
:1032D000188EDF91CF911F910F91FF90EF9008957D
:1032E000FC011382128288EE93E0A0E0B0E08483B8
:1032F0009583A683B78384EE94E091838083128EB6
:10330000118E148608950895FC01818D928D009789
:1033100011F00C942F1B80E090E00895FC01818D4A
:10332000928D009711F00C947D1C80E00895DC01D3
:103330005996ED91FC915A97309729F062857385E3
:103340008485958508956FEF7FEFCB010895DC01AB
:103350005996ED91FC915A97309729F063897489B9
:1033600085899689089560E070E0CB010895CF9239
:10337000DF92EF92FF92CF93DF93FC01218D328D8C
:10338000232BD9F0EC010E94A7196B017C01CE011F
:103390000E949719A7019601261B370B480B590B62
:1033A000DA01C901811530E89307A105B10538F0AC
:1033B0008FEF9FE7A0E0B0E002C080E090E0DF91F7
:1033C000CF91FF90EF90DF90CF900895CF93DF9350
:1033D000EC01898D9A8D009741F00E945A1D898DCC
:1033E0009A8D0E9491371A8E198EDF91CF91089590
:1033F000DC015996ED91FC915A97309721F081E0CC
:103400009581911101C080E00895CF93DF93EC0185
:103410009C012A5F3F4F41E050E060E070E08B8DFF
:103420009C8D0E944D268823A1F08F89988DA98DAF
:10343000BA8D892B8A2B8B2B59F48E819F81A8857D
:10344000B9858F8B988FA98FBA8F8C8180688C8378
:1034500081E0DF91CF910895CF92DF92EF92FF92BA
:103460001F93CF93DF93EC010E94051A811102C0D4
:1034700080E04AC0EB8DFC8DCE80DF80E884F9844B
:1034800082E0C81AD108E108F108058404C0CC0C18
:10349000DD1CEE1CFF1C0A94D2F786859785A08957
:1034A000B189C80ED91EEA1EFB1E148181E0C81A1C
:1034B000D108E108F108112361F0C701B601610FDD
:1034C000711D811D911D0E949C24882389F2115039
:1034D000F2CFEB8DFC8D80E092E0A0E0B0E00584BF
:1034E00004C0880F991FAA1FBB1F0A94D2F74B89EB
:1034F0005C896D897E89840F951FA61FB71F8B8BF2
:103500009C8BAD8BBE8B81E0DF91CF911F91FF90A3
:10351000EF90DF90CF900895CF93DF93EC01462F8B
:103520006E857F85888999890E946124882341F06E
:103530008A8920E2829FC00111248D5C974E02C0CF
:1035400080E090E0DF91CF910895FB019B01255F22
:103550003F4F40E24193E217F307E1F7DC0190E0CF
:1035600027E08D91882319F18E3219F0EAE1F3E01A
:1035700008C02A3009F198E02AE0F3CF31963817D5
:10358000D9F034913111FACF2917B0F03FED380F4F
:103590003E3590F431E0390FFB01E90FF11D9FE951
:1035A000980F9A3108F480528083932FDACF81E00C
:1035B000FB019081903209F480E008950F931F93EE
:1035C000CF93DF93FC012581222311F080E042C0DC
:1035D0008B01EC01FB0187898031B1F482E08D839E
:1035E0001F8A188E198E1A8E808D918DA0E0B0E002
:1035F00025E0880F991FAA1FBB1F2A95D1F78B8B37
:103600009C8BAD8BBE8B15C0803201F783E08D8320
:10361000FB01428D538D648D758D4F8B588F698F53
:103620007A8F9E012D5E3F4FC8010E94442588235A
:1036300069F21C8F0B8F81E08C831E821F8218869B
:1036400019861A861B861C861D861E861F86188A6A
:10365000198A1A8ADF91CF911F910F9108952F92A5
:103660003F924F925F926F927F928F929F92AF9212
:10367000BF92CF92DF92EF92FF920F931F93CF935F
:10368000DF93EC015B014A018D81811103C08FEF53
:103690009FEFD7C08C8180FFFACF4B885C886D8804
:1036A0007E884A855B856C857D85C401A0E0B0E09D
:1036B00093018201041B150B260B370B0817190702
:1036C0002A073B0718F44201841A950A24011E01B7
:1036D00026E0220E311C4114510409F47EC04A85B3
:1036E0005B856C857D856A0181E0D822ED818A0148
:1036F0009B0189E036952795179507958A95D1F70F
:103700008B8D9C8DE23061F4FC01828D938DA48DB4
:10371000B58DBC01CD01600F711F821F931F3FC08B
:10372000FC0174807A947022C114D104C9F4711020
:1037300017C0452B462B472B49F48F89988DA98DAF
:10374000BA8D8E839F83A887B9870AC04E815F8117
:103750006885798591010E94C024882309F497CF58
:10376000EB8DFC8D8E819F81A885B9850297A1097B
:10377000B109058404C0880F991FAA1FBB1F0A94B2
:10378000D2F74685578560897189840F951FA61FDA
:10379000B71FBC01CD01670D711D811D911D20E07A
:1037A00032E02C193D0932012415350508F43901A0
:1037B0002C8126FD04C06114F2E07F0679F50091AA
:1037C000010210910202209103023091040260175D
:1037D00071078207930719F421C0C40132C0750133
:1037E00083019601AB01BC01809131189091321890
:1037F0000E948423882309F44ACFA60CB71C8A852B
:103800009B85AC85BD85860D971DA11DB11D8A8741
:103810009B87AC87BD87461857085DCF40E00E9464
:103820006124882309F433CFF601ED5CF74ED5010E
:10383000CF01860D971DE817F907F9F221912D9315
:10384000FACFDF91CF911F910F91FF90EF90DF9012
:10385000CF90BF90AF909F908F907F906F905F9030
:103860004F903F902F900895FF920F931F93CF9307
:10387000DF931F92CDB7DEB7FC012581223018F40B
:1038800080E090E033C08C01FC0142855385648563
:10389000758585E076956795579547958A95D1F713
:1038A000F42FFF70FF2E41E050E0BE016F5F7F4FAD
:1038B000C8010E942F1B019719F4898190E002C072
:1038C0008FEF9FEF0196E1F2F80182859385A48541
:1038D000B5854F96A11DB11D82879387A487B587B3
:1038E000F0E2FF9EC00111248D5C974E0F90DF9196
:1038F000CF911F910F91FF9008958F929F92AF9259
:10390000BF92CF92DF92EF92FF920F931F93CF93CC
:10391000DF93EC018D81811102C080E077C00B89BB
:103920001C892D893E890417150726073707A8F338
:103930006A017B01823029F4CA86DB86EC86FD862B
:103940000DC0C114D104E104F10451F41E821F82A0
:10395000188619861A861B861C861D8681E056C02D
:103960008A849B84AC84BD84EB8DFC8D258530E0FE
:10397000275F3F4FB501A401415051096109710909
:10398000022E04C076956795579547950A94D2F70D
:10399000D701C6010197A109B10904C0B695A79541
:1039A000979587952A95D2F784179507A607B707A5
:1039B00020F089288A288B2849F44F89588D698DF1
:1039C0007A8D4E835F836887798704C0841B950B4B
:1039D000A60BB70B4C015D018E010A5F1F4F8114CE
:1039E0009104A104B10409F4A7CF4E815F816885D9
:1039F000798598018B8D9C8D0E94C02491E0891A55
:103A00009108A108B1088111EACF87CFDF91CF914A
:103A10001F910F91FF90EF90DF90CF90BF90AF90EC
:103A20009F908F9008950F931F93CF93DF93EC0196
:103A30008D818823C9F18C8187FF30C061E0CE0180
:103A40000E948C1A8C01892B79F18D81823048F487
:103A50008B899C89AD89BE89F801848F958FA68F4B
:103A6000B78F8F89988DA98DBA8DF801938F828F2A
:103A7000B58BA48BE0912A18F0912B18309759F050
:103A8000B8016A5E7F4FC80148961995F801808D8C
:103A9000918D938B828B8C818F778C83DF91CF91EB
:103AA0001F910F910C94262480E0DF91CF911F91FC
:103AB0000F910895CF93DF93EC010E94131D88238B
:103AC00011F01D8281E0DF91CF9108954F925F92B6
:103AD0006F927F928F929F92AF92BF92EF92FF92DE
:103AE0000F931F93CF93DF9300D01F92CDB7DEB714
:103AF000FC0185818130E9F4848181FF1AC08389CA
:103B00009489A589B68984179507A607B70788F011
:103B1000892B8A2B8B2B09F479C04A015B017F0129
:103B20004284538464847584CF010E947D1C81117A
:103B300002C080E06CC0F701838D948D81149104E4
:103B4000A104B10471F44789508D618D728D0E947A
:103B50006227882371F3F701178A108E118E128E57
:103B60003AC0F70146815781608571859E012F5FBC
:103B70003F4F0E94C0248823E1F249815A816B8122
:103B80007C81F701838D948DFC012789203129F0F8
:103B900008EF1FEF2FEF3FE004C008EF1FEF20E01A
:103BA00030E04017510762077307A8F40E946227AC
:103BB000882309F4BECFF70146815781608571855E
:103BC0000FEF1FEF2FEF3FE0838D948D0E94AD2507
:103BD000882309F4AECFF701838A948AA58AB68A2E
:103BE000848180688483C7010E94131D882309F49F
:103BF000A0CFB501A401481459046A047B0410F451
:103C0000B301A201C7010E947D1C01C081E00F9099
:103C10000F900F900F90DF91CF911F910F91FF9018
:103C2000EF90BF90AF909F908F907F906F905F903C
:103C30004F9008951F93CF93DF93EC0180E2689F2C
:103C4000F00111249F012D5C374ED9011B969C91E8
:103C5000917129F0842F827411F080E05BC0142FE1
:103C60006A8B8091010290910202A0910302B091AF
:103C700004028E879F87A88BB98BED5CF74E448931
:103C8000558960E070E0BA01552744274F8B588F63
:103C9000698F7A8F828D938DA0E0B0E0482B592BED
:103CA0006A2B7B2B4F8B588F698F7A8FD9011B968C
:103CB0008C91887151F4848D958DA68DB78D8B8BE9
:103CC0009C8BAD8BBE8B81E00DC0803131F69E01A7
:103CD0002D5E3F4F8B8D9C8D0E944425882309F4D7
:103CE000BCCF84E08D83812F8F708C831E821F82D6
:103CF000188619861A861B861C861D8616FF09C023
:103D000040E050E0BA01CE01DF91CF911F910C94B9
:103D1000661D81E0DF91CF911F910895CF92DF92D0
:103D2000EF92FF920F931F93CF93DF93CDB7DEB740
:103D30002C970FB6F894DEBF0FBECDBFFC013581C6
:103D40003111C2C0D22E8B017C01BE016F5F7F4F4B
:103D5000CA010E94A51A882309F4B6C0F801838D10
:103D6000948DF701948F838FF80116821782108645
:103D70001186128613861486158630E0F801828536
:103D80009385A485B5854389548965897689841787
:103D90009507A607B70708F041C025E0B695A79597
:103DA000979587952A95D1F7F82FFF70CF2EC801E8
:103DB0003C870E94341C3C85009709F485C0FC01B7
:103DC0002081222309F484C0253E99F04BE050E085
:103DD000BC01CE0101963C870E94B1393C85892BFC
:103DE00069F68D2D8073803309F46EC04D2D6C2DD6
:103DF00067C031116BC0F701C28A40910102509136
:103E00000202609103027091040246875787608B1B
:103E1000718BFC01808131E08111B0CF8D2D8271D9
:103E2000823109F051C0332341F061E0C7010E94A3
:103E30008C1A8C01892B79F447C0F8018581823076
:103E400009F442C0C8010E942C1A8823E9F1F70145
:103E5000128A03E318E180E2F80111928A95E9F7EA
:103E60008BE0FE013196D80101900D928A95E1F721
:103E7000E0912A18F0912B18309739F0B801625F61
:103E80007F4FC8014096199509C081E298E2F80178
:103E9000918B808B80E098E097878687F8018089F6
:103EA0009189938B828B918F808F86859785978B55
:103EB000868B0E942624882339F04D2DF7016289D4
:103EC000C7010E941A1E09C080E007C031E056CF2A
:103ED000332309F490CF31E0A1CF2C960FB6F8949C
:103EE000DEBF0FBECDBFDF91CF911F910F91FF902D
:103EF000EF90DF90CF9008952F923F924F925F9274
:103F00006F927F928F929F92AF92BF92CF92DF92E9
:103F1000EF92FF920F931F93CF93DF9300D01F92E6
:103F2000CDB7DEB78C016B013A01DC0115968C919F
:103F300015978130C9F414968C9181FF15C082FFCA
:103F40001DC0F801438954896589768982859385E6
:103F5000A485B58584179507A607B70779F0C8012A
:103F60000E947D1C81110AC081E090E0D801139667
:103F70009C938E93129780E090E048C1430184C0E7
:103F8000D8015B968D919C915C97FC0154802FEF3A
:103F9000250D1A012B0139E0569447943794279444
:103FA0003A95D1F7522E52207A01F1E0FF225520A6
:103FB00009F476C080E092E08E199F0954018815BB
:103FC000990508F45C01D8015B962D913C915C97B2
:103FD00016968D919D910D90BC91A02D0297A109EF
:103FE000B109F901058404C0880F991FAA1FBB1FDE
:103FF0000A94D2F74685578560897189840F951F89
:10400000A61FB71F9C01AD01250D311D411D511D7E
:1040100019012A01A11432E0B30609F088C0809189
:10402000010290910202A0910302B0910402821554
:104030009305A405B50559F48FEF9FEFDC0180933C
:10404000010290930202A0930302B093040296012E
:10405000B201A10180913118909132180E94D823A9
:10406000882309F481CF9EEFD91A8A189B08F8019A
:1040700082859385A485B5858A0D9B1DA11DB11DE3
:1040800082879387A487B587D8011A964D915D9151
:104090006D917C911D978114910409F071CF87C0B7
:1040A000E114F10409F086CF16964D915D916D9162
:1040B0007C911997411551056105710559F4579681
:1040C0008D919D910D90BC91A02D0097A105B105FA
:1040D00041F521C09E012F5F3F4F0E94C0248823DD
:1040E00009F44ACF89819A81AB81BC81F801238D83
:1040F000348DF9012789203129F048EF5FEF6FEF08
:104100007FE004C048EF5FEF60E070E08417950740
:10411000A607B70730F0C8010E94051A81114ACFDF
:1041200023CFF80186839783A087B18743CFE1141B
:10413000F10429F5D8011A964D915D916D917C910C
:104140001D9753968D919D910D90BC91A02D481770
:1041500059076A077B0798F00E942624882309F4F0
:1041600003CF209201023092020240920302509249
:1041700004028091301881608093301808C041E0BB
:10418000C201B1010E946124882309F4EDCED60159
:10419000F701ED5CF74ECF018A0D9B1DE817F9077B
:1041A00019F02D912193FACFCA0CDB1C5ECF5396E8
:1041B000CD90DD90ED90FC90569714968C91C4169E
:1041C000D506E606F70640F4F801438B548B658B61
:1041D000768B806884830DC020912A1830912B182B
:1041E000232B39F06114710421F08068D8011496F2
:1041F0008C93F801848183FD02C0C30107C0C8010C
:104200000E94131D882309F4AFCEF7CF0F900F90B3
:104210000F900F90DF91CF911F910F91FF90EF9032
:10422000DF90CF90BF90AF909F908F907F906F90D6
:104230005F904F903F902F900895CF93DF931F9200
:10424000CDB7DEB7698341E050E0BE016F5F7F4FBD
:104250000E947C1F0F90DF91CF9108958EBD0DB409
:1042600007FEFDCF08958FEF0E942E218EB5089591
:1042700061E0FC0184810C94B71060E0FC01848152
:104280000C94B710CF93DF93FC0186818823D1F083
:104290008FEF8EBD4FEF878190859C012F5F3F4F41
:1042A000308727838130924028F40DB407FEFDCF7C
:1042B0004EBDF1CF0DB407FEFDCFEF01CF010E943F
:1042C00038211E82DF91CF910895673028F026E1D2
:1042D000FC01258380E008958DB560FD02C0663045
:1042E00011F48E7F01C081608DBD8CB58C7F8CBD3B
:1042F0009CB562FD02C080E001C082E066956170FD
:10430000692B862B8CBD81E008950F931F93CF936B
:10431000DF93EB010E944B0F8B010E9433218F3FF3
:1043200049F00E944B0F601B710B6C177D07A8F3BF
:1043300080E001C081E0DF91CF911F910F9108953E
:10434000CF92DF92FF920F931F93CF93DF9300D012
:104350001F92CDB7DEB76C01F62E29833A834B83CB
:104360005C830E944221C6010E943D216CE271E003
:10437000C6010E9485218F2D80640E942E2108E1B4
:1043800010E05C814B813A812981DA01C901002E5C
:1043900004C0B695A795979587950A94D2F7298377
:1043A0003A834B835C830E942E2108501109298196
:1043B0003A814B815C81083F8FEF180731F7FF206E
:1043C00029F0E8E0FE1204C087E803C085E901C0D7
:1043D0008FEF0E942E2110E00E943321F601828788
:1043E00087FF04C01F3F11F01F5FF6CF0F900F90A3
:1043F0000F900F90DF91CF911F910F91FF90DF9061
:10440000CF9008958F929F92AF92BF92EF92FF92BA
:104410000F931F93CF93DF93EC01E62E1B86198633
:104420001E821D824C830E944B0F8B0161E08C81A8
:104430000E947B10CE010E94382160E082E30E943E
:104440007B1061E083E30E947B1061E084E30E94C3
:104450007B1061E085E30E947B1061E085E30E94B0
:10446000B71083E58CBD8DB58E7F8DBD2AE0F22E11
:104470008FEF0E942E21FA94F110FACFCE010E9404
:104480003D2120E030E0A90160E0CE010E94A021A2
:10449000F82E8A8781E0F81649F00E944B0F601BC6
:1044A000710B613D774068F381E04CC02AEA31E04E
:1044B00040E050E068E0CE010E94A02182FF02C0EF
:1044C000FB860EC094E0F92E0E9433218A87FA946D
:1044D000F110FACF8A3A11F082E034C082E08B8783
:1044E0008B85823021F0812C912C540105C0812CC8
:1044F000912CA12C80E4B82E20E030E0A90167E3E4
:10450000CE010E94A021A501940169E2CE010E9482
:10451000A0218A87882349F00E944B0F601B710BF2
:10452000613D774048F388E00DC08B85823039F5D6
:1045300020E030E0A9016AE3CE010E94A021882397
:1045400089F086E08D83CE010E94382180E0DF91E2
:10455000CF911F910F91FF90EF90BF90AF909F90E0
:104560008F9008950E943321807C803C11F483E079
:104570008B870E9433210E9433210E943321CE0178
:104580000E9438216E2DCE01DF91CF911F910F91A6
:10459000FF90EF90BF90AF909F908F900C9465210B
:1045A0000F931F93CF93DF93EC010E944B0F8B016E
:1045B0000E9433218A878F3F49F40E944B0F601B72
:1045C000710B6D327140A0F38FE003C08E3F39F064
:1045D0008DE08D83CE010E94382180E001C081E012
:1045E000DF91CF911F910F910895CF92DF92EF92BB
:1045F000FF920F931F93CF93DF93EC016901C801E2
:10460000820F931F8130924008F06FC08E81882303
:1046100071F088819981AA81BB81481759076A077F
:104620007B0729F48F819885C816D90618F5488329
:1046300059836A837B838B85833039F089E0440F0B
:10464000551F661F771F8A95D1F79A01AB0161E16B
:10465000CE010E94A021882319F083E08D8345C0FC
:10466000CE010E94D022882309F43FC018861F8201
:1046700081E08E838FEF8EBD2FEF8F8198858C1513
:104680009D0550F40DB407FEFDCF2EBD8F8198859A
:10469000019698878F83F1CFC8010197F7014FEFFB
:1046A0009F012E193F092817390738F40DB407FE6A
:1046B000FDCF2EB521934EBDF3CF0DB407FEFDCF38
:1046C0002EB5F701E80FF91F20838F819885080F19
:1046D000191F18870F838985882319F00115124047
:1046E00048F0CE010E94422105C0CE010E9438212F
:1046F00080E001C081E0DF91CF911F910F91FF9089
:10470000EF90DF90CF900895EF92FF920F931F9359
:104710000115110519F00E94F52201C081E01F91D9
:104720000F91FF90EF900895EF92FF920F931F93D8
:10473000790100E012E020E030E00E94F5221F91B4
:104740000F91FF90EF900895CF93DF93EC016EBD32
:1047500020E030E00DB407FEFDCFFA01E20FF31FB9
:1047600080818EBD0DB407FEFDCF81818EBD2E5F91
:104770003F4F211582E0380769F70DB407FEFDCFE2
:104780008FEF0E942E218FEF0E942E210E94332155
:104790008A87982F9F71953039F081E18D83CE0102
:1047A0000E94382180E001C081E0DF91CF9108951F
:1047B0000F931F93CF93DF93EC01890141155105AE
:1047C0006105710511F482E132C08B85833039F0C7
:1047D00089E0440F551F661F771F8A95D1F79A010C
:1047E000AB0168E1CE010E94A021882311F084E092
:1047F0001EC0A8016EEFCE010E94A4238823C1F041
:1048000068E572E0CE010E948521811102C085E138
:104810000EC020E030E0A9016DE0CE010E94A02191
:10482000811104C00E943321882339F084E18D83F3
:10483000CE010E94382180E004C0CE010E943821C0
:1048400081E0DF91CF911F910F91089580913018F1
:104850008823A9F140910102509102026091030264
:104860007091040223E338E180913118909132185D
:104870000E94D823811102C080E0089540912C1835
:1048800050912D1860912E1870912F1841155105D7
:104890006105710591F023E338E180913118909121
:1048A00032180E94D823882339F310922C181092C2
:1048B0002D1810922E1810922F181092301881E097
:1048C0000895CF92DF92EF92FF92CF936B017C011C
:1048D000C42F8091010290910202A0910302B09135
:1048E00004028C159D05AE05BF05D1F00E9426245B
:1048F000811102C080E01AC023E338E1B701A601AC
:1049000080913118909132180E949423882391F35A
:10491000C0920102D0920202E0920302F0920402DD
:1049200080913018C82BC093301881E0CF91FF9050
:10493000EF90DF90CF900895CF92DF92EF92FF92A9
:104940006B017C010E9426248823A9F0E3E3F8E1AF
:1049500011928AE1E333F807D9F7C0920102D092AD
:104960000202E0920302F09204028091301881600A
:104970008093301881E0FF90EF90DF90CF90089502
:104980008F929F92AF92BF92CF92DF92EF92FF925F
:104990000F931F93CF93DF93FC0181859285A385AD
:1049A000B4850196A11DB11D84179507A607B70709
:1049B00010F480E05CC083899489A589B689C78991
:1049C000C03129F4852E962EA72EBB2409C04A019A
:1049D0005B01C7E0B694A79497948794CA95D1F7E2
:1049E000E9016A017B018F01BC01CD01680D791DD0
:1049F0008A1D9B1D8090010290900202A0900302EC
:104A0000B0900402681579058A059B0599F4F801B0
:104A100087898031A9F4B701A60155276627772732
:104A2000440F551FFA01ED5CF74E80819181A0E0A3
:104A3000B0E018C040E00E9461248111E8CFB9CFF6
:104A4000B701A6014F77552766277727440F551FD3
:104A5000440F551FFA01ED5CF74E80819181A281D0
:104A6000B381BF7088839983AA83BB8381E0DF9180
:104A7000CF911F910F91FF90EF90DF90CF90BF905B
:104A8000AF909F908F9008954F925F926F927F9218
:104A9000AF92BF92CF92DF92EF92FF920F931F934C
:104AA000CF93DF9300D01F92CDB7DEB78C0149833F
:104AB0005A836B837C835901C12CD12C7601412C04
:104AC00082E0582E612C712C49815A816B817C8146
:104AD0009E012F5F3F4FC8010E94C024882351F1DF
:104AE000D301C201F801058404C0880F991FAA1FD1
:104AF000BB1F0A94D2F7C80ED91EEA1EFB1E4981BD
:104B00005A816B817C818789803129F088EF9FEF02
:104B1000AFEFBFE004C088EF9FEFA0E0B0E0481720
:104B200059076A077B0780F2F501C082D182E282D1
:104B3000F38281E00F900F900F900F90DF91CF9153
:104B40001F910F91FF90EF90DF90CF90BF90AF90AB
:104B50007F906F905F904F9008954F925F926F9209
:104B60007F928F929F92AF92BF92CF92DF92EF92FD
:104B7000FF920F931F93CF93DF93EC016A017B01A8
:104B800028013901423051056105710510F480E0BA
:104B900073C089859A85AB85BC850196A11DB11D21
:104BA00084179507A607B70790F38B889C88AD8874
:104BB000BE888F89803129F4BB27AF2D9E2D8D2D86
:104BC00009C0DB01CA0147E0B695A795979587957F
:104BD0004A95D1F7880E991EAA1EBB1E809101022C
:104BE00090910202A0910302B091040288169906E6
:104BF000AA06BB0679F48F898031A1F4DD24EE2466
:104C0000FF24C601880F991FFC01ED5CF74E51820D
:104C1000408219C040E0C501B4010E9461248111A5
:104C2000EACFB5CFE894C7F8DD24EE24FF24C6010F
:104C3000880F991F880F991FFC01ED5CF74E408289
:104C40005182628273828091301881608093301823
:104C50008A89823080F08D819E81AF81B885880EEF
:104C6000991EAA1EBB1E80922C1890922D18A092FD
:104C70002E18B0922F1881E0DF91CF911F910F91E4
:104C8000FF90EF90DF90CF90BF90AF909F908F906C
:104C90007F906F905F904F9008952F923F924F9228
:104CA0005F926F927F929F92AF92BF92CF92DF926C
:104CB000EF92FF920F931F93CF93DF93CDB7DEB7A1
:104CC00060970FB6F894DEBF0FBECDBF5C01498779
:104CD0005A876B877C871901D901CD90DD90ED90C3
:104CE000FC90C114D104E104F10431F0BFEFCB1A00
:104CF000DB0AEB0AFB0A10C0FC01C080D180E28015
:104D0000F3809924939409851A852B853C8501307D
:104D100011052105310509F0912CF5018185928558
:104D2000A385B4858C019D010F5F1F4F2F4F3F4F0F
:104D30000D871E872F87388B260137011D821E8223
:104D40001F821886F50181859285A385B4850D8122
:104D50001E812F813885081719072A073B0708F09D
:104D600056C02D853E854F85588924153505460545
:104D7000570550F482E0482E512C612C712C92E0A2
:104D8000C92ED12CE12CF12C9E012F5F3F4FB30196
:104D9000A201C5010E94C0248823C9F149815A811A
:104DA0006B817C81D301C2010196A11DB11D452BF0
:104DB000462B472B19F06C017D010FC0AC01BD01E2
:104DC0004C195D096E097F0909851A852B853C857B
:104DD000401751076207730779F02D813E814F819B
:104DE00058852F5F3F4F4F4F5F4F2D833E834F833B
:104DF00058872C013D01A6CF0FEF1FEF2FEF3FE0AB
:104E0000B301A201C5010E94AD25811118C080E047
:104E100041C0D301C2010197A109B1098D839E83CD
:104E2000AF83B88793018201AC01BD01C5010E9427
:104E3000AD25882361F34D805E806F807884C41433
:104E4000D504E604F70428F3D1014D915D916D91ED
:104E50007C91411551056105710599F4F101C082FC
:104E6000D182E282F3829920A1F0FFEFCF1ADF0A0C
:104E7000EF0AFF0AD501CD92DD92ED92FC921397D5
:104E800008C097018601C5010E94AD258111E6CFBA
:104E9000BECF81E060960FB6F894DEBF0FBECDBFE7
:104EA000DF91CF911F910F91FF90EF90DF90CF9006
:104EB000BF90AF909F907F906F905F904F903F908A
:104EC0002F900895AF92BF92CF92DF92EF92FF9210
:104ED0000F931F93CF93DF9300D01F92CDB7DEB710
:104EE0005C016A017B0182E090E0A0E0B0E0F501A6
:104EF00080839183A283B3839E012F5F3F4FB701CD
:104F0000A601C5010E94C024882311F100E010E031
:104F10009801B701A601C5010E94AD258823C1F003
:104F2000C980DA80EB80FC80F5018789803129F027
:104F300088EF9FEFAFEFBFE004C088EF9FEFA0E0E6
:104F4000B0E0C816D906EA06FB06B0F281E001C05F
:104F500080E00F900F900F900F90DF91CF911F91F5
:104F60000F91FF90EF90DF90CF90BF90AF9008959A
:104F70008F929F92AF92BF92CF92DF92EF92FF9269
:104F80000F931F93CF93DF93EC01142F709332187C
:104F900060933118442369F1453010F080E0F2C08D
:104FA00040E060E070E0CB010E9461248823B1F30F
:104FB00020E1129FA00111244D5D574EFA01E254E9
:104FC000FE4F80818F7751F73C9680819181A2813D
:104FD000B38184369105A105B10500F33497C080F3
:104FE000D180E280F380C114D104E104F10421F402
:104FF000D5CFC12CD12C760140E0C701B6010E946B
:105000006124882359F280913E1890913F188115B0
:10501000924021F690914318992309F4BFCF209133
:10502000411830914218232B09F4B8CF80914018D1
:10503000882309F4B3CF9A8B8C831D8690E061E0BE
:1050400070E02D85E22FAB01022E02C0440F551FE8
:105050000A94E2F78417950731F031E0320F3D876B
:10506000283078F39BCF2091491830914A182115A8
:10507000310519F040E050E008C0209157183091F8
:1050800058184091591850915A182D833E834F83D8
:105090005887809141189091421846015701880E17
:1050A000991EA11CB11C8B8A9C8AAD8ABE8A009174
:1050B000441810914518198F088FA0914318B0E03B
:1050C0000E94B63A860E971EA81EB91E8A8E9B8E27
:1050D000AC8EBD8E85E0000F111F8A95E1F701505F
:1050E0001E4F012F11270695800E911EA11CB11C89
:1050F0008E869F86A88AB98A2091461830914718D3
:105100002115310521F0A90160E070E008C040914F
:105110005318509154186091551870915618D70132
:10512000C60188199909AA09BB09840F951FA61FF2
:10513000B71F04C0B695A79597958795EA95D2F7BE
:1051400089879A87AB87BC87853F2FE09207A105A7
:10515000B10510F48CE014C0853F9F4FA105B10547
:1051600010F480E10DC080915F1890916018A091BB
:105170006118B09162188A8F9B8FAC8FBD8F80E2CF
:105180008F8B81E0DF91CF911F910F91FF90EF9076
:10519000DF90CF90BF90AF909F908F9008952F9207
:1051A0003F924F925F926F927F928F929F92AF92B7
:1051B000BF92CF92DF92EF92FF920F931F93CF9304
:1051C000DF9300D0CDB7DEB74C017B836A836A01E1
:1051D000590117019801241B350B37FF03C0319586
:1051E00021953109C5014A815B81841B950B97FF8D
:1051F00003C091958195910951E0598382179307D6
:1052000014F019820BC09A2D8B2D5801092F182FDD
:105210009A818B81DB82CA82C92ED82E8A819B819A
:10522000A816B9065CF49C2D8D2D6801092F182F46
:105230009A818B81BB82AA82A92EB82E2501AA81D0
:10524000BB814A1A5B0A38016C187D0877FE03C0DF
:10525000719461947108720157FE03C0BFEFEB1A9D
:10526000FB0AF594E794C016D1061CF00FEF1FEF70
:105270001FC001E010E01CC0D401ED91FC91B98188
:105280000084F185E02D9101BB23C1F04A815B814F
:10529000B601C4011995E618F708F7FE04C0C00E60
:1052A000D11EE40CF51CEA81FB813196FB83EA8375
:1052B0004A815B81A416B506FCF604C0A6016A818A
:1052C0007B81E7CF0F900F900F90DF91CF911F91CF
:1052D0000F91FF90EF90DF90CF90BF90AF909F9095
:1052E0008F907F906F905F904F903F902F90089598
:1052F0000895DC01ED91FC910480F581E02D199475
:105300000F931F93DC01ED91FC91008CF18DE02D4A
:1053100019951F910F9108950F931F93DC01ED9143
:10532000FC91028CF38DE02D19951F910F9108953A
:10533000EF92FF920F931F93DC01ED91FC91048C8F
:10534000F58DE02D19951F910F91FF90EF90089525
:105350000895AF92BF92CF92DF92EF92FF920F9398
:105360001F93CF93DF9300D01F92CDB7DEB75C01C0
:105370006901DC01ED91FC910680F781E02D4B8302
:105380005C8369837A831995D501ED91FC914B81FA
:105390005C81C40ED51EB1E0CB1AD1080088F1891A
:1053A000E02D7801860169817A819B01C5011995FB
:1053B000D501ED91FC910288F389E02DC5010F9094
:1053C0000F900F900F90DF91CF911F910F91FF9051
:1053D000EF90DF90CF90BF90AF901994AF92BF92B3
:1053E000CF92DF92EF92FF920F931F93CF93DF93B1
:1053F00000D01F92CDB7DEB75C016901DC01ED91F1
:10540000FC910680F781E02D4B835C8369837A836E
:105410001995D501ED91FC9169817A819B012C0D43
:105420003D1D215031090088F189E02D78014B8123
:105430005C818A01C5011995D501ED91FC91028825
:10544000F389E02DC5010F900F900F900F90DF9121
:10545000CF911F910F91FF90EF90DF90CF90BF9071
:10546000AF9019944F925F926F927F928F929F921A
:10547000AF92BF92CF92DF92EF92FF920F931F9362
:10548000CF93DF931F921F92CDB7DEB76C015A0105
:1054900039014801DC01ED91FC910680F781E02D96
:1054A00069837A8319956981462E7A81572E640C17
:1054B000751CD601ED91FC91461457046CF40484DC
:1054C000F585E02D87019401A501B201C60119956A
:1054D000BFEF4B1A5B0AEDCF0288F389E02DC601BE
:1054E0000F900F90DF91CF911F910F91FF90EF9050
:1054F000DF90CF90BF90AF909F908F907F906F90F4
:105500005F904F901994EF92FF920F931F93DC01DD
:10551000ED91FC9111971A960D911C911B9718967D
:105520002D913C911997048CF58DE02D7B0140E085
:1055300050E060E070E019951F910F91FF90EF909F
:105540000895CF92DF92EF92FF920F931F93CF9324
:10555000DF9300D000D0CDB7DEB76C01DC01ED9158
:10556000FC916217730789F4041715072CF4942F24
:10557000852FA801092F182F041B150B98012F5FE9
:105580003F4F008CF18DE02D12C04017510709F5F7
:10559000261737072CF4962F872FB901292F382F7C
:1055A000261B370B2F5F3F4F028CF38DE02D8701B9
:1055B000C601199526960FB6F894DEBF0FBECDBF73
:1055C000DF91CF911F910F91FF90EF90DF90CF90DF
:1055D00008950680F781E02D2D833E834B835C8305
:1055E00069837A831995D601ED91FC910088F18940
:1055F000E02D2D813E814B815C8169817A81C601DC
:105600001995D601ED91FC910288F389E02DC60130
:1056100026960FB6F894DEBF0FBECDBFDF91CF91B7
:105620001F910F91FF90EF90DF90CF9019946F92A0
:105630007F928F929F92AF92BF92CF92DF92EF9222
:10564000FF920F931F93CF93DF93EC014B015A010D
:1056500069013801E881F9810680F781E02D19950B
:10566000E881F9810684F785E02D87019601A5017F
:10567000B401CE011995E881F981A501460D571DA8
:10568000415051090684F785E02D9601B401CE0101
:105690001995E881F9810484F585E02D9301A50130
:1056A000B401CE011995E881F981C80CD91CB60165
:1056B000615071090484F585E02D9301A501CE01A7
:1056C0001995E881F9810288F389E02DCE01DF91F7
:1056D000CF911F910F91FF90EF90DF90CF90BF90EF
:1056E000AF909F908F907F906F9019940895FC01D8
:1056F0006370658B8481958126813781613039F0B3
:10570000633029F091878087338722870895318716
:105710002087938782870895FC01138212828CEF81
:1057200094E0918380837583648357834683718774
:10573000608753874287158A1586148617861686D2
:1057400081E0848B2FEF3FEF338B228B318B208BCB
:10575000868B178A118E108E08952F923F924F924A
:105760005F926F927F928F929F92AF92BF92CF92F1
:10577000DF92EF92FF920F931F93CF93DF93CDB7FA
:10578000DEB728970FB6F894DEBF0FBECDBF5C0121
:105790003B014A0138872F83FC82EB8281E090E055
:1057A0002C01421A530AC9019195819591099C01D6
:1057B000220F331F3A832983170133E0230E311C54
:1057C000EE24E394F12C802F81708D8302700E8380
:1057D000C7010197EF81F8858E179F070CF078C0FD
:1057E00057FC0CC0AF81B8851197B887AF83E981AA
:1057F000FA813296FA83E9834E0E5F1EC701880F45
:10580000991F0196480E591EFD81FF2359F1D501BC
:10581000ED91FC912F813885220F331F2F5F3F4F71
:105820008B819C81280F391F0484F585E02D86012A
:10583000A401AF81B8854A1B5B0BB701660D771DCC
:10584000C5011995D501ED91FC910484F585E02DF4
:105850009101A4014E195F096F817885660D771D4E
:10586000C5011995BE81BB2361F1D501ED91FC9174
:105870002F813885220F331F2F5F3F4F8B819C81F3
:10588000280F391F0484F585E02D8601A401AF811E
:10589000B8854A1B5B0BB3016E197F09C5011995C9
:1058A000D501ED91FC910484F585E02D9101A401D1
:1058B0004E195F09B3018F819885681B790BC5016B
:1058C00019959FEFE91AF90AA2E02A0E311C80CF40
:1058D00028960FB6F894DEBF0FBECDBFDF91CF91F3
:1058E0001F910F91FF90EF90DF90CF90BF90AF90FE
:1058F0009F908F907F906F905F904F903F902F90F0
:1059000008956F927F928F929F92AF92BF92CF92A3
:10591000DF92EF92FF920F931F93CF93DF93EC01EF
:105920004B013A0159016801E881F9810680F7814C
:10593000E02D1995E881F9819501220F331F2F5F22
:105940003F4FA3014A195B090484F585E02DB4019A
:10595000CE011995E12CF12C03E09501A301B401CE
:10596000CE010E94AD2BE881F9810288F389E02DF8
:10597000CE01DF91CF911F910F91FF90EF90DF90BB
:10598000CF90BF90AF909F908F907F906F90199421
:105990002F923F924F925F926F927F928F929F923F
:1059A000AF92BF92CF92DF92EF92FF920F931F932D
:1059B000CF93DF93CDB7DEB76C970FB6F894DEBF09
:1059C0000FBECDBF9C8F8B8F5B011A011F830E838F
:1059D0003701C982DC0158964D915C915997411568
:1059E000510509F0E5C018968D919C91199768179B
:1059F00079070CF0CAC11A968D919C911B972816B5
:105A000039060CF0C2C18C2C912CFB0136E0C39EF0
:105A1000E00DF11D1124FB87EA871E161F060CF00E
:105A2000B4C1C40133E0880F991F3A95E1F79D870F
:105A30008C87820D931D181619060CF0A6C1579677
:105A40008C91811103C0203B08F02F5FAB8DBC8D82
:105A5000ED91FC9111970680F781E02DCD012A8F01
:105A600019952A8DB5E02B9F90011124F5013596EB
:105A7000FF87EE872501BB82AA82A9014A195B092B
:105A8000598B488BC10108969B8B8A8BE889F989D1
:105A9000E40DF51DE65DFC4F949198873D822C82C4
:105AA0006101A885A0FF13C0AB8DBC8DED91FC9169
:105AB000B981B13031F40084F185E02D2E813F8130
:105AC00016C00284F385E02DEE80FF801AC0EE81BF
:105AD000FF816E167F06F1F0AB8DBC8DED91FC91D0
